:0300000002000EED
:0C000E00787FE4F6D8FD758108020055EB
:080003001200BB75A0FE80FE97
:0300D20001080022
:1000BB005389F0438901758A18758CFCC28DD28CDB
:0700CB00D2A9D2AFC2B92295
:03000B0002009A56
:10009A00C0E0C0D0758A18758CFC0508D3E50894B1
:1000AA0064748094804005750800B2A0D0D0D0E076
:0100BA003213
:10001A00020003E493A3F8E493A34003F68001F2F9
:10002A0008DFF48029E493A3F85407240CC8C333E7
:10003A00C4540F4420C8834004F456800146F6DFB6
:10004A00E4800B01020408102040809000D2E47E74
:10005A00019360BCA3FF543F30E509541FFEE493AB
:10006A00A360010ECF54C025E060A840B8E493A372
:10007A00FAE493A3F8E493A3C8C582C8CAC583CA9D
:10008A00F0A3C8C582C8CAC583CADFE9DEE780BE55
:0100D500002A
:00000001FF
